:020000040800F2
:100000006006002039010008410100084301000892
:1000100000000000000000000000000000000000E0
:100020000000000000000000000000004501000882
:10003000000000000000000047010008490100081E
:100040004B0100084B0100084B0100084B01000860
:100050004B0100084B0100084B0100084B01000850
:10006000000000004B0100084B0100084B01000894
:100070004B0100084B0100084B0100084B01000830
:100080004B01000800000000000000004B010008C8
:10009000000000004B0100084B0100084B01000864
:1000A000000000004B010008000000004B010008A8
:1000B00000F002F800F030F80CA030C8083824181E
:1000C0002D18671EA246AB4654465D46AC4201D190
:1000D00000F022F87E460F3EB6460FCC0126334292
:1000E00000D0FB1A3343A246AB461847280800004D
:1000F000380800000023002400250026103A01D310
:1001000078C1FBD8520700D330C100D50B607047CF
:100110001FB51FBD10B510BD00F074F91146FFF7F3
:10012000F7FF00F025FB00F08CF903B4FFF7F2FFB6
:1001300003BC00F0E1F9000007488047074800478A
:10014000FEE7FEE7FEE7FEE7FEE7FEE704480549B7
:10015000054A064B7047000059070008B100000827
:100160006000002060060020600200206002002085
:10017000002203098B4273D3030A8B4258D3030B2B
:100180008B423CD3030C8B4221D312E003460B433A
:100190007FD4002243088B4274D303098B425FD380
:1001A000030A8B4244D3030B8B4228D3030C8B42AC
:1001B0000DD30902FF2212BA030C8B4202D3121292
:1001C000090265D0030B8B4219D300E0090AC30B67
:1001D0008B4201D3CB03C01A5241830B8B4201D314
:1001E0008B03C01A5241430B8B4201D34B03C01AFD
:1001F0005241030B8B4201D30B03C01A5241C30A75
:100200008B4201D3CB02C01A5241830A8B4201D3E5
:100210008B02C01A5241430A8B4201D34B02C01ACF
:100220005241030A8B4201D30B02C01A5241CDD274
:10023000C3098B4201D3CB01C01A524183098B42BF
:1002400001D38B01C01A524143098B4201D34B01A8
:10025000C01A524103098B4201D30B01C01A52410B
:10026000C3088B4201D3CB00C01A524183088B4292
:1002700001D38B00C01A524143088B4201D34B007B
:10028000C01A5241411A00D20146524110467047ED
:100290005DE0CA0F00D04942031000D340425340F2
:1002A0009C46002203098B422DD3030A8B4212D3B2
:1002B0008901FC2212BA030A8B420CD389019211E4
:1002C0008B4208D3890192118B4204D389013AD021
:1002D000921100E08909C3098B4201D3CB01C01AF6
:1002E000524183098B4201D38B01C01A5241430909
:1002F0008B4201D34B01C01A524103098B4201D3F7
:100300000B01C01A5241C3088B4201D3CB00C01A63
:10031000524183088B4201D38B00C01A5241D9D27B
:1003200043088B4201D34B00C01A5241411A00D2FC
:1003300001465241104663465B1001D34042002BF8
:1003400000D54942704763465B1000D3404201B577
:100350000449002802DC491C084000E00846C04669
:10036000C04602BDFFFFFF7F704770477047010224
:10037000C21504D00123DB071943002A0ADB9E23A0
:100380009A1A02D40846D0407047FF224100120654
:10039000914201D900207047C017C0437047000048
:1003A00010B5FF231B0644009C421DD84C009C4204
:1003B0001AD80346124A0B4307D4401A02D3EFF36C
:1003C000008010BDEFF3008010BD081A03D3EFF3D7
:1003D0000080904305E0EFF3008001219043C907BE
:1003E000084380F3008810BD0D231B041A4204D07B
:1003F0001146002000F02DF810BD00F041F810BDAE
:1004000000000090754600F043F8AE4605006946CE
:100410005346C008C000854618B020B5FFF796FEC9
:1004200060BCB64600260027C0C5C0C5C0C5C0C553
:10043000C0C5C0C5C0C5C0C5403D490849008D46BE
:10044000704710B50446C046C0462046FFF76DFE13
:1004500010BDC80212D54803400F002804D0C803BD
:10046000C043012188407047EFF30080000100097C
:1004700003210907084380F3008870470020704774
:1004800010B5024800F008F810BD00000000C07F61
:10049000004870470000002010B50C461107090FF6
:1004A000092904D00A290AD008290CD104E01146F0
:1004B0000820FFF7CEFF06E0510606D501E0510601
:1004C00001D50120C007214610BDD10607D5010185
:1004D0000909CC084907000E0006044309E0410F52
:1004E00020024907000A0143200E00061D22D141C7
:1004F00001430846E7E7000001491820ABBEFEE7CC
:10050000260002007047000070B5012043044449F2
:100510000A681A430A6084040A6822430A60820552
:100520000D6815430D6001040922D20615680D43BC
:1005300015605168516003210D0496682E43966042
:10054000D5681D43D5601368234313605368536017
:100550008B0494681C439460C304D4681C43D46027
:10056000030514681C431460536853600B059468BA
:100570001C4394604305D4681C43D4608306294A15
:1005800014681C431460536853608B0694681C43C2
:100590009460C306D4681C43D460030714681C43EA
:1005A0001460536853600B0794681C4394604307BE
:1005B000D4681C43D460830714681C4314605368D8
:1005C00053608B0794681C439460C307D4681C4332
:1005D000D460154A136803431360536853609368EB
:1005E0000B439360D36802241C43D4600303146854
:1005F0001C431460536853600B0394681C4394605D
:10060000D368D3608003136803431360506850605D
:100610008803916801439160D068D06070BDC04686
:1006200014100240000400480014004870B504464D
:10063000002100F0D5F8002822D1412001062046F3
:1006400000F006F9FFF793FE0446113C3F492046AF
:10065000FFF78EFD3E4803683E4A05685D1B16465F
:10066000D7362E408E42F8D3210E09D00368046895
:100670001C1B1546D03525409542F8D3491EF5D1AF
:1006800070BDC04670B50446154900F0E1F8002180
:1006900000F0A6F8002821D11249204600F0D8F831
:1006A000FFF765FE0446113C28492046FFF760FD30
:1006B00027480368274A05685D1B1646D7362E4033
:1006C0008E42F8D3210E09D0036804681C1B15461E
:1006D000D03525409542F8D3491EF5D170BDC046AE
:1006E00000007A440000FA4570B50446154900F050
:1006F000AFF8002100F074F8002821D112492046FB
:1007000000F0A6F8FFF733FE0446113C0F492046DF
:10071000FFF72EFD0E4803680E4A05685D1B16465E
:10072000D7362E408E42F8D3210E09D003680468D4
:100730001C1B1546D03525409542F8D3491EF5D1EE
:1007400070BDC046002474490024F44AFFFFFF0036
:1007500018E000E028FFFF00704700000020C043C1
:1007600002494860886005200860704710E000E09A
:10077000154C20688047606880471448402101601C
:100780008021016012480568144C01267002114F47
:1007900038602046A84770030F4F38602046A847AE
:1007A000B0020C4908602046A847B00338602046D4
:1007B000A8473002074908602046A847F003386080
:1007C0002046A847E1E7C0460C0900081814004875
:1007D00000090008140000481404004800D08445B3
:1007E00010B500F00BF8EFF300804000800F0128F7
:1007F00001D0012010BD002010BD00000123DB0549
:1008000002000A430DD4DA4203D49A4207D4884244
:100810007047D84214D4D94212D4884270478042DB
:100820007047DA4203D59A42F9D5814270475B009E
:100830004200DA4204D24A00DA4201D281427047D1
:1008400010B5024AFFF7ACFD10BD00BF0900160449
:1008500070B5420064414B005C41120E39D01B0E52
:1008600038D0FF2A3CD0FF2B3AD0D2187F3A400232
:100870004902400A490A4518ED0106004E43000AA4
:10088000090A48430104731A4019190C4318990FB7
:1008900004D05B08012149075B1A521CD80904D314
:1008A000401CF50301D19D0607D0FF2A08D2D505CB
:1008B00006D0E4072043401970BD0125A843F4E7A2
:1008C000002A01DCE00770BD2402FF202043C005A0
:1008D00070BD1B0EFF2A03D0FF2B01D0E00770BDB7
:1008E000FF2636064500B54206D84D00B54203D86E
:1008F000D218FF2A00D0E7E7004870BD0000C07F93
:100900002D06000885060008E9060008090500080C
:100910005D070008240900080000002060060000B0
:04092000F4000008D7
:04000005080000B13E
:00000001FF
